:100000000C9466000C9483000C9483000C94830081
:100010000C9483000C9483000C9483000C94830054
:100020000C9483000C9483000C9483000C94830044
:100030000C9483000C9483000C9483000C94830034
:100040000C9483000C9483000C9483000C94830024
:100050000C9483000C9483000C9483000C94830014
:100060000C9483000C9483000C9483000C94830004
:100070000C9483000C9483000C9483000C948300F4
:100080000C9483000C9483000C9483000C948300E4
:100090000C9483000C9483000C9483000C948300D4
:1000A0000C9483000C9483000C9483000C948300C4
:1000B0000C9483000C9483000C9483000C948300B4
:1000C0000C9483000C9483000C94830011241FBEB5
:1000D000CFEFD8E0DEBFCDBF11E0A0E0B1E0EAE0B5
:1000E000FAE002C005900D92AA31B107D9F721E0DC
:1000F000AAE1B1E001C01D92AA36B207E1F70E9461
:100100008A000C9403050C940000FC012181622BF1
:100110006183089548EA51E660E070E088ED90E080
:100120000E94A5000E945301FFCF24E0FC0124831C
:10013000089524E1FC012483089524E2FC01248332
:10014000089524E4FC0124830895CF92DF92EF9276
:10015000FF92CF93DF93EC019A01AB0160E074E270
:1001600084EF90E00E94F70169017A0180E1C81AEA
:10017000D108E108F108C701B6012EEF31E040E0F7
:1001800050E00E94F701211531054105510589F024
:10019000243031054105510570F02031310541050C
:1001A000510558F02034310541055105C8F483E06C
:1001B00005C080E003C081E001C082E08983220F96
:1001C000331F441F551FC701B6010E94F701822F3C
:1001D000932F8F3F910509F028F4288380E003C016
:1001E00081E001C081E0DF91CF91FF90EF90DF903F
:1001F000CF900895EF92FF921F93CF93DF93EC017E
:1002000070E0660F771F162F11600E949D008C8191
:100210008823ECF78C81887F883011F0803119F4C5
:100220001B8384E08C838C81803499F581E0E8160F
:10023000F10421F4CE010E94950027C0CE010E9456
:10024000A10023C08C818823ECF78981887F8035C9
:1002500081F481E0E81AF1088B8181E0E816F1046D
:1002600021F4CE010E94950010C0CE010E94A10091
:100270000CC0883551F481E0E81AF1088B81CE0179
:100280000E9499008C8184FDFDCFE114F104D1F628
:1002900004C0883411F481E000C0DF91CF911F9138
:1002A000FF90EF900895AF92BF92CF92DF92EF92BE
:1002B000FF920F931F93CF93DF9300D01F92CDB780
:1002C000DEB762E083E290E00E94850085B18D7F19
:1002D00085B985E38A95F1F7000085B1826085B91B
:1002E0000E94C701A82EB92E19821A821B8214E619
:1002F000CE0101966C010F2EF3E0EF2EF12CF02DC4
:1003000000E020E030E0A90163E488ED90E00E9485
:10031000FA001150882311F01111EACF8B811F923E
:100320008F9380E091E09F938F93BF92AF920E9452
:1003300019024A2D5B2D60E070E088EC90E00E948D
:10034000CA010F900F900F900F900F900F900F9089
:100350000F900F90DF91CF911F910F91FF90EF9031
:10036000DF90CF90BF90AF900895FC0120E030E087
:1003700090812F5F3F4F95FD03C021153105C1F7D7
:10038000232B19F0668380E0089580E908958AE1BF
:1003900091E00895EF92FF920F931F93CF93DF9315
:1003A0007C018B01D42F411118C0FB016081C0E09A
:1003B00008C0C7010E94B501CF5FF801EC0FF11D25
:1003C00060816111F6CF0CC0F801EC0FF11D608166
:1003D000C7010E94B501CF5F01C0C0E0CD17A0F3F7
:1003E000DF91CF911F910F91FF90EF900895A1E2BF
:1003F0001A2EAA1BBB1BFD010DC0AA1FBB1FEE1F9F
:10040000FF1FA217B307E407F50720F0A21BB30BE9
:10041000E40BF50B661F771F881F991F1A9469F765
:1004200060957095809590959B01AC01BD01CF01C1
:100430000895AEE0B0E0EFE1F2E00C94DA040D894B
:100440001E8986E08C831A8309838FEF9FE79E8342
:100450008D83AE01475E5F4F6F89788DCE01019627
:100460000E943B02EF81F885E00FF11F10822E966B
:10047000E4E00C94F604ABE0B0E0E1E4F2E00C94CC
:10048000CC046C017B018A01FC01178216828381F6
:1004900081FFCCC1CE0101963C01F6019381F701A9
:1004A00093FD859193FF81917F01882309F4BAC15F
:1004B000853239F493FD859193FF81917F018532D7
:1004C00029F4B60190E00E943204E7CF912C212C50
:1004D000312CFFE1F315D8F08B3279F038F480320B
:1004E00079F08332A1F4232D20611DC08D3261F09B
:1004F000803369F4232D216016C0832D8260382E4D
:10050000E32DE4603E2E2AC0F32DF8601DC037FCB9
:100510002DC020ED280F2A3040F08E32B9F436FC81
:1005200081C1232D2064322E19C036FE06C08AE018
:10053000989E200D1124922E11C0EAE02E9E200DCF
:100540001124222EF32DF0623F2E08C08C3621F4A8
:10055000832D8068382E02C0883641F4F70193FD60
:10056000859193FF81917F018111B3CF982F9F7D5A
:100570009554933028F40C5F1F4F9FE399830DC06F
:10058000833631F0833771F0833509F059C021C0CB
:10059000F801808189830E5F1F4F88248394912CFA
:1005A000530113C02801F2E04F0E511CF801A08046
:1005B000B18036FE03C0692D70E002C06FEF7FEF9F
:1005C000C5010E9427044C018201F32DFF773F2EC5
:1005D00016C0280122E0420E511CF801A080B18013
:1005E00036FE03C0692D70E002C06FEF7FEFC501DA
:1005F0000E941C044C01F32DF0683F2E820133FC55
:100600001BC0822D90E088169906B0F4B60180E2F6
:1006100090E00E9432042A94F4CFF50137FC8591D2
:1006200037FE81915F01B60190E00E9432042110F3
:100630002A9421E0821A91088114910471F7E8C08C
:10064000843611F0893641F5F80137FE07C0608124
:100650007181828193810C5F1F4F08C0608171811D
:10066000072E000C880B990B0E5F1F4FF32DFF76A2
:100670003F2E97FF09C090958095709561957F4FAB
:100680008F4F9F4FF0683F2E2AE030E0A3010E9479
:100690006E04882E861845C0853731F4232D2F7EB1
:1006A000B22E2AE030E025C0932D997FB92E8F36E7
:1006B000C1F018F4883579F0B5C0803719F0883763
:1006C00021F0B0C0E92FE061BE2EB4FE0DC0FB2DBD
:1006D000F460BF2E09C034FE0AC0292F2660B22E56
:1006E00006C028E030E005C020E130E002C020E193
:1006F00032E0F801B7FE07C0608171818281938189
:100700000C5F1F4F06C06081718180E090E00E5F3A
:100710001F4FA3010E946E04882E8618FB2DFF77C1
:100720003F2E36FE0DC0232D2E7FA22E891458F4A5
:1007300034FE0BC032FC09C0832D8E7EA82E05C06E
:10074000B82CA32C03C0B82C01C0B92CA4FE0FC038
:10075000FE01E80DF11D8081803321F49A2D997EF0
:10076000A92E09C0A2FE06C0B394B39404C08A2D7A
:10077000867809F0B394A3FC11C0A0FE06C0B214A1
:1007800088F4280C922C9B180EC0B21460F4B601A9
:1007900080E290E00E943204B394F7CFB21418F4D0
:1007A0002B1802C0982C212CA4FE10C0B60180E3A7
:1007B00090E00E943204A2FE17C0A1FC03C088E7AB
:1007C00090E002C088E590E0B6010CC08A2D8678E2
:1007D00059F0A1FE02C08BE201C080E2A7FC8DE2CD
:1007E000B60190E00E943204891438F4B60180E327
:1007F00090E00E9432049A94F7CF8A94F301E80DB6
:10080000F11D8081B60190E00E9432048110F5CF85
:10081000222009F442CEB60180E290E00E94320428
:100820002A94F6CFF6018681978102C08FEF9FEF61
:100830002B96E2E10C94E804FC01059061507040B5
:100840000110D8F7809590958E0F9F1F0895FC0199
:100850006150704001900110D8F7809590958E0FEF
:100860009F1F08950F931F93CF93DF93FB01238165
:1008700021FD03C08FEF9FEF2CC022FF16C04681E1
:100880005781248135814217530744F4A081B181F7
:100890009D012F5F3F4F318320838C9326813781C9
:1008A0002F5F3F4F3783268314C08B01EC01FB0180
:1008B0000084F185E02D0995892BE1F6D801169683
:1008C0008D919C911797019617969C938E931697EE
:1008D000CE01DF91CF911F910F910895FA01AA27C0
:1008E000283051F1203181F1E8946F936E7F6E5F73
:1008F0007F4F8F4F9F4FAF4FB1E03ED0B4E03CD021
:10090000670F781F891F9A1FA11D680F791F8A1F03
:10091000911DA11D6A0F711D811D911DA11D20D06A
:1009200009F468943F912AE0269F11243019305D24
:100930003193DEF6CF010895462F4770405D419315
:10094000B3E00FD0C9F7F6CF462F4F70405D4A3362
:1009500018F0495D31FD4052419302D0A9F7EACF2A
:10096000B4E0A6959795879577956795BA95C9F759
:1009700000976105710508959B01AC010A2E06944C
:100980005795479537952795BA95C9F7620F731F05
:10099000841F951FA01D08952F923F924F925F9242
:1009A0006F927F928F929F92AF92BF92CF92DF927F
:1009B000EF92FF920F931F93CF93DF93CDB7DEB7E4
:1009C000CA1BDB0B0FB6F894DEBF0FBECDBF099478
:1009D0002A88398848885F846E847D848C849B84CF
:1009E000AA84B984C884DF80EE80FD800C811B81DD
:1009F000AA81B981CE0FD11D0FB6F894DEBF0FBE0C
:0A0A0000CDBFED010895F894FFCF7B
:100A0A0052656365697665642056616C7565203D3B
:0A0A1A002025322E3262580A0D002A
:00000001FF
