:100000000C948E000C94AB000C94AB000C94AB00E1
:100010000C94AB000C94AB000C94AB000C94AB00B4
:100020000C94AB000C94AB000C94AB000C94AB00A4
:100030000C94AB000C94AB000C94AB000C94AB0094
:100040000C94AB000C94AB000C94AB000C94AB0084
:100050000C94AB000C94AB000C94AB000C94AB0074
:100060000C94AB000C94AB000C94AB000C94AB0064
:100070000C94AB000C94AB000C94AB000C94AB0054
:100080000C94AB000C94AB000C94AB000C94AB0044
:100090000C94AB000C94AB000C94AB000C94AB0034
:1000A0000C94AB000C94AB000C94AB000C94AB0024
:1000B0000C94AB000C94AB000C94AB000C94AB0014
:1000C0000C94AB000C94AB000C94AB0048656C6CCA
:1000D0006F20576F726C64210A0D00416464722EA8
:1000E000204F666673657420202030202031202048
:1000F0003220203320203420203520203620203785
:100100002020382020392020412020422020432058
:1001100020442020452020460A0D000011241FBE47
:10012000CFEFD8E0DEBFCDBF11E0A0E0B1E0EAEF55
:10013000FDE002C005900D92A634B107D9F721E089
:10014000A6E4B1E001C01D92A639B207E1F70E9412
:100150006C010C94FB060C940000FC012181622BC5
:1001600061830895411105C0FC012281262B228361
:1001700006C0FC012281362F3095232322830E9462
:10018000AD000895411106C0FC01228160956223F3
:1001900062830895FC012281622B628308954111DC
:1001A00005C0FC012281622B62830895FC0122813B
:1001B00060956223628308958F929F92AF92BF925F
:1001C000EF92FF920F931F93CF93DF93CDB7DEB7DC
:1001D0002B970FB6F894DEBF0FBECDBF7C0180E039
:1001E00008C0E1E0F0E0EC0FFD1FE80FF11D108208
:1001F0008F5F8B30B0F388248A94982C540100E0F0
:10020000C7010E945703182F80ED810F8A3068F4D0
:10021000612FC7010E944503E1E0F0E0EC0FFD1FF4
:10022000E00FF11D10830F5F2DC0183011F01F3744
:10023000A9F40150E1E0F0E0EC0FFD1FE00FF11D2B
:10024000108268E0C7010E94450360E2C7010E9476
:10025000450368E0C7010E94450314C01D3021F02A
:100260001A3011F01E3271F4CE0101960E94D503AE
:100270004B015C016DE0C7010E9445036AE0C701C4
:100280000E9445030A3071F4CE0101960E94D50305
:100290004B015C016DE0C7010E9445036AE0C701A4
:1002A0000E9445038FEF88169806A806B80609F441
:1002B000A7CFC501B4012B960FB6F894DEBF0FBED1
:1002C000CDBFDF91CF911F910F91FF90EF90BF9025
:1002D000AF909F908F900895CF93DF93CDB7DEB707
:1002E000A9970FB6F894DEBF0FBECDBF89E2E7E055
:1002F000F1E0DE01119601900D928A95E1F740E060
:1003000060E886E290E00E94B20040E068E083E2AC
:1003100090E00E94B20040E060E18CE290E00E9438
:10032000B20040E060E880E290E00E94B20040E865
:1003300055E260E070E088EC90E00E940E030E94BD
:100340005D03082F192F40E0682F792F8CEC90E087
:100350000E94600340E0602F712F88EC90E00E94C3
:10036000860362E370E0CE0101960E94E60288EC0B
:1003700090E00E945703682F88EC90E00E944503AC
:1003800040E060E886E290E00E94C20065E588EC0B
:1003900090E00E9445032FEF81EE94E021508040D1
:1003A0009040E1F700C0000040E060E886E290E0A5
:1003B0000E94CF002FEF81EF9BE2215080409040C0
:1003C000E1F700C0000040E068E083E290E00E94B6
:1003D000C2006DE088EC90E00E9445032FEF81EEB3
:1003E00094E0215080409040E1F700C0000040E0E0
:1003F00068E083E290E00E94CF002FEF81EF9BE264
:10040000215080409040E1F700C0000040E060E1F2
:100410008CE290E00E94C2006AE088EC90E00E94CA
:1004200045032FEF81EE94E0215080409040E1F7AA
:1004300000C0000040E060E18CE290E00E94CF004C
:100440002FEF81EF9BE2215080409040E1F700C008
:10045000000040E060E880E290E00E94C2006AE3B1
:1004600088EC90E00E9445032FEF81EE94E021504C
:1004700080409040E1F700C0000040E060E880E28A
:1004800090E00E94CF002FEF81EF9BE2215080404F
:100490009040E1F700C0000088EC90E00E94DC0092
:1004A0009F938F937F936F9380E091E09F938F93BF
:1004B0001F930F930E94110440E0602F712F88EC6E
:1004C00090E00E9486030FB6F894DEBF0FBECDBF4A
:1004D0004ECFCF92DF92FF920F931F93CF93DF9374
:1004E0008C016B010E945D03F82ED92F0C0D1D1D90
:1004F0001F930F9380E391E09F938F93DF93FF927D
:100500000E94110440E06F2D7D2F88EC90E00E9446
:100510008603DF92CF9284E391E09F938F93DF93E2
:10052000FF920E94110440E06F2D7D2F88EC90E037
:100530000E9486038DB79EB70C960FB6F8949EBFA7
:100540000FBE8DBFC0E01CC0F801EC0FF11D808113
:100550001F928F932EE331E03F932F93DF93FF920F
:100560000E94110440E06F2D7D2F88EC90E00E94E6
:100570008603CF5F0F900F900F900F900F900F900A
:10058000C03110F3C0E00EC0F801EC0FF11D608126
:1005900080EE860F803608F06EE288EC90E00E94D4
:1005A0004503CF5FC03180F36DE088EC90E00E949E
:1005B00045036AE088EC90E00E944503DF91CF910B
:1005C0001F910F91FF90DF90CF900895EF92FF92CF
:1005D0000F931F93CF93DF937C018B010E945D03E8
:1005E000EC0140E0BC018BED90E00E94600340E034
:1005F000BE0188EC90E00E948603C0E0D0E0BE011E
:10060000C7010E9469026096C017D107C0F3DF914D
:10061000CF911F910F91FF90EF900895CF93DF93AB
:10062000EC01DB01CA0180589B47A14EBF4F880FE8
:10063000991FAA1FBB1F880F991FAA1FBB1F880FD6
:10064000991FAA1FBB1F440F551F661F771F440F1A
:10065000551F661F771F9A01AB01220F331F441FDE
:10066000551F220F331F441F551FBC01CD010E948F
:10067000B303215031093D832C83188286E08A839D
:1006800088E18983DF91CF910895FC0120E030E07B
:1006900090812F5F3F4F95FD03C021153105C1F7B4
:1006A000232B19F0668380E0089580E90895FC010A
:1006B00090819923ECF78681089586E491E008956E
:1006C000CF93DF93DC0141111AC0242F30E0FD01EC
:1006D000E20FF31FE491EB01C20FD31FE8834F5FDA
:1006E000E111F3CF0FC0292F30E0FD01E20FF31F1E
:1006F000E491EB01C20FD31FE8839F5F01C090E03C
:10070000941788F3842FDF91CF910895EF92FF9291
:100710000F931F93CF93DF937C018B01D42F411153
:1007200018C0FB016081C0E008C0C7010E944503FA
:10073000CF5FF801EC0FF11D60816111F6CF0CC0A5
:10074000F801EC0FF11D6081C7010E944503CF5FE6
:1007500001C0C0E0CD17A0F3DF91CF911F910F91A1
:10076000FF90EF900895A1E21A2EAA1BBB1BFD017A
:100770000DC0AA1FBB1FEE1FFF1FA217B307E40780
:10078000F50720F0A21BB30BE40BF50B661F771FD8
:10079000881F991F1A9469F76095709580959095B8
:1007A0009B01AC01BD01CF0108951F93FC01992766
:1007B0008827BC01E89411911032E9F3193010F048
:1007C0001E30C8F31B3251F01D3249F4689406C044
:1007D0000E94FC03610F711D811D911D1191105329
:1007E0001A30B0F33EF490958095709561957F4FE7
:1007F0008F4F9F4F1F910895592F482F372F262F26
:10080000660F771F881F991F660F771F881F991F14
:10081000620F731F841F951F660F771F881F991F14
:100820000895AEE0B0E0E7E1F4E00C94D2060D8963
:100830001E8986E08C831A8309838FEF9FE79E834E
:100840008D83AE01475E5F4F6F89788DCE01019633
:100850000E943304EF81F885E00FF11F10822E967D
:10086000E4E00C94EE06ABE0B0E0E9E3F4E00C94D5
:10087000C4066C017B018A01FC0117821682838108
:1008800081FFCCC1CE0101963C01F6019381F701B5
:1008900093FD859193FF81917F01882309F4BAC16B
:1008A000853239F493FD859193FF81917F018532E3
:1008B00029F4B60190E00E942A06E7CF912C212C62
:1008C000312CFFE1F315D8F08B3279F038F4803217
:1008D00079F08332A1F4232D20611DC08D3261F0A7
:1008E000803369F4232D216016C0832D8260382E59
:1008F000E32DE4603E2E2AC0F32DF8601DC037FCC6
:100900002DC020ED280F2A3040F08E32B9F436FC8D
:1009100081C1232D2064322E19C036FE06C08AE024
:10092000989E200D1124922E11C0EAE02E9E200DDB
:100930001124222EF32DF0623F2E08C08C3621F4B4
:10094000832D8068382E02C0883641F4F70193FD6C
:10095000859193FF81917F018111B3CF982F9F7D66
:100960009554933028F40C5F1F4F9FE399830DC07B
:10097000833631F0833771F0833509F059C021C0D7
:10098000F801808189830E5F1F4F88248394912C06
:10099000530113C02801F2E04F0E511CF801A08052
:1009A000B18036FE03C0692D70E002C06FEF7FEFAB
:1009B000C5010E941F064C018201F32DFF773F2ED7
:1009C00016C0280122E0420E511CF801A080B1801F
:1009D00036FE03C0692D70E002C06FEF7FEFC501E6
:1009E0000E9414064C01F32DF0683F2E820133FC67
:1009F0001BC0822D90E088169906B0F4B60180E203
:100A000090E00E942A062A94F4CFF50137FC8591E4
:100A100037FE81915F01B60190E00E942A06211005
:100A20002A9421E0821A91088114910471F7E8C098
:100A3000843611F0893641F5F80137FE07C0608130
:100A40007181828193810C5F1F4F08C06081718129
:100A5000072E000C880B990B0E5F1F4FF32DFF76AE
:100A60003F2E97FF09C090958095709561957F4FB7
:100A70008F4F9F4FF0683F2E2AE030E0A3010E9485
:100A80006606882E861845C0853731F4232D2F7EC3
:100A9000B22E2AE030E025C0932D997FB92E8F36F3
:100AA000C1F018F4883579F0B5C0803719F088376F
:100AB00021F0B0C0E92FE061BE2EB4FE0DC0FB2DC9
:100AC000F460BF2E09C034FE0AC0292F2660B22E62
:100AD00006C028E030E005C020E130E002C020E19F
:100AE00032E0F801B7FE07C0608171818281938195
:100AF0000C5F1F4F06C06081718180E090E00E5F47
:100B00001F4FA3010E946606882E8618FB2DFF77D3
:100B10003F2E36FE0DC0232D2E7FA22E891458F4B1
:100B200034FE0BC032FC09C0832D8E7EA82E05C07A
:100B3000B82CA32C03C0B82C01C0B92CA4FE0FC044
:100B4000FE01E80DF11D8081803321F49A2D997EFC
:100B5000A92E09C0A2FE06C0B394B39404C08A2D86
:100B6000867809F0B394A3FC11C0A0FE06C0B214AD
:100B700088F4280C922C9B180EC0B21460F4B601B5
:100B800080E290E00E942A06B394F7CFB21418F4E2
:100B90002B1802C0982C212CA4FE10C0B60180E3B3
:100BA00090E00E942A06A2FE17C0A1FC03C088E7BD
:100BB00090E002C088E590E0B6010CC08A2D8678EE
:100BC00059F0A1FE02C08BE201C080E2A7FC8DE2D9
:100BD000B60190E00E942A06891438F4B60180E339
:100BE00090E00E942A069A94F7CF8A94F301E80DC8
:100BF000F11D8081B60190E00E942A068110F5CF98
:100C0000222009F442CEB60180E290E00E942A063A
:100C10002A94F6CFF6018681978102C08FEF9FEF6D
:100C20002B96E2E10C94E006FC01059061507040C7
:100C30000110D8F7809590958E0F9F1F0895FC01A5
:100C40006150704001900110D8F7809590958E0FFB
:100C50009F1F08950F931F93CF93DF93FB01238171
:100C600021FD03C08FEF9FEF2CC022FF16C04681ED
:100C70005781248135814217530744F4A081B18103
:100C80009D012F5F3F4F318320838C9326813781D5
:100C90002F5F3F4F3783268314C08B01EC01FB018C
:100CA0000084F185E02D0995892BE1F6D80116968F
:100CB0008D919C911797019617969C938E931697FA
:100CC000CE01DF91CF911F910F910895FA01AA27CC
:100CD000283051F1203181F1E8946F936E7F6E5F7F
:100CE0007F4F8F4F9F4FAF4FB1E03ED0B4E03CD02D
:100CF000670F781F891F9A1FA11D680F791F8A1F10
:100D0000911DA11D6A0F711D811D911DA11D20D076
:100D100009F468943F912AE0269F11243019305D30
:100D20003193DEF6CF010895462F4770405D419321
:100D3000B3E00FD0C9F7F6CF462F4F70405D4A336E
:100D400018F0495D31FD4052419302D0A9F7EACF36
:100D5000B4E0A6959795879577956795BA95C9F765
:100D600000976105710508959B01AC010A2E069458
:100D70005795479537952795BA95C9F7620F731F11
:100D8000841F951FA01D08952F923F924F925F924E
:100D90006F927F928F929F92AF92BF92CF92DF928B
:100DA000EF92FF920F931F93CF93DF93CDB7DEB7F0
:100DB000CA1BDB0B0FB6F894DEBF0FBECDBF099484
:100DC0002A88398848885F846E847D848C849B84DB
:100DD000AA84B984C884DF80EE80FD800C811B81E9
:100DE000AA81B981CE0FD11D0FB6F894DEBF0FBE18
:0A0DF000CDBFED010895F894FFCF88
:100DFA00256C75200A0D0054686973206973206197
:100E0A0020737472696E6720696E205352414D20B7
:100E1A002D20526F67657220596F756E6765720073
:100E2A0025702000307825342E34582020002532B1
:060E3A002E3258200000DA
:00000001FF
