S01800006578706572696D656E74345F747279332E73726563A6
S11300000C9466000C9483000C9483000C9483007D
S11300100C9483000C9483000C9483000C94830050
S11300200C9483000C9483000C9483000C94830040
S11300300C9483000C9483000C9483000C94830030
S11300400C9483000C9483000C9483000C94830020
S11300500C9483000C9483000C9483000C94830010
S11300600C9483000C9483000C9483000C94830000
S11300700C9483000C9483000C9483000C948300F0
S11300800C9483000C9483000C9483000C948300E0
S11300900C9483000C9483000C9483000C948300D0
S11300A00C9483000C9483000C9483000C948300C0
S11300B00C9483000C9483000C9483000C948300B0
S11300C00C9483000C9483000C94830011241FBEB1
S11300D0CFEFD8E0DEBFCDBF11E0A0E0B1E0E8E8AB
S11300E0F5E002C005900D92A239B107D9F721E0DD
S11300F0A2E9B1E001C01D92A239B207E1F70E9462
S113010085000C94C2020C940000CF93DF9300D0BE
S11301101F92CDB7DEB740E855E260E070E088ECAE
S113012090E00E942A0247E060E071E088EC90E0F1
S11301300E94730240EA56E861E070E088ED90E0C6
S11301400E94F200182F8823C9F04EE068E071E0A5
S113015088EC90E00E947302113039F443E067E1C7
S113016071E088EC90E00E947302123039F443E0AD
S11301706BE171E088EC90E00E94730219821A82AC
S11301801B821AE0CE0101966C010F2EF3E0EF2ED4
S1130190F12CF02D00E020E030E0A90163E488EBCD
S11301A090E00E947B011150882311F01111EACFD5
S11301B00E94DD0145E06FE171E088EC90E00E946F
S11301C07302FFCF24E8FC012483089524E9FC0191
S11301D02483089524EAFC012483089524ECFC017B
S11301E024830895CF92DF92EF92FF920F931F938F
S11301F0CF93DF9300D000D0CDB7DEB78C01498315
S11302005A836B837C8329813A814B815C8160E0D2
S113021074E284EF90E00E94A002CA01B901605127
S11302207109810991092EEF31E040E050E00E940C
S1130230A0022115310541055105B1F024303105E5
S113024041055105B8F02031310541055105C8F08B
S11302502034310541055105F0F5C12CD12C76012E
S11302606894C6F883E013C0C12CD12C7601C394E2
S113027080E00DC0C12CD12C76016894C2F881E0D5
S113028006C0C12CD12C76016894C4F882E0F80130
S1130290818329813A814B815C8160E074E284EF3F
S11302A090E00E94A002CA01B9016051710981095C
S11302B09109A7019601220F331F441F551F0E9465
S11302C0A002822F932F8F3F910509F030F4F8019B
S11302D0208380E003C081E001C082E00F900F9092
S11302E00F900F90DF91CF911F910F91FF90EF909E
S11302F0DF90CF900895EF92FF921F93CF93DF93F7
S1130300EC0170E0660F771F162F11600E94EA005F
S11303108C818823ECF78981887F883019F08031BB
S113032009F042C01B8384E88C838C818823ECF71A
S11303308981887F8034A1F581E0E816F10421F4F5
S1130340CE010E94E20027C0CE010E94EE0023C02D
S11303508C818823ECF78981887F803581F481E062
S1130360E81AF1088B8181E0E816F10421F4CE014A
S11303700E94E20010C0CE010E94EE000CC088353D
S113038051F481E0E81AF1088B81CE010E94E60065
S11303908C8184FDFDCFE114F104D1F680E007C027
S11303A0883421F485E003C084E001C080E0DF915B
S11303B0CF911F91FF90EF9008958230F1F028F4CF
S11303C0882349F0813081F03CC0843041F1F0F061
S11303D0853071F136C047E050E06FE371E088EC9E
S11303E090E00E947302089548E050E067E471E0F1
S11303F088EC90E00E94730208954CE050E060E5C0
S113040071E088EC90E00E94730208954DE050E0A2
S11304106DE571E088EC90E00E94730208954CE071
S113042050E06BE671E088EC90E00E94730208955E
S11304304DE050E068E771E088EC90E00E947302C0
S113044008954AE050E066E871E088EC90E00E948C
S113045073020895CF93DF93EC01DB01CA01805846
S11304609B47A14EBF4F880F991FAA1FBB1F880F20
S1130470991FAA1FBB1F880F991FAA1FBB1F440FD8
S1130480551F661F771F440F551F661F771F9A015C
S1130490AB01220F331F441F551F220F331F441F6C
S11304A0551FBC01CD010E94A002215031093D839A
S11304B02C83188286E08A8388E18983DF91CF9137
S11304C00895FC0120E030E090812F5F3F4F95FDBF
S11304D003C021153105C1F7232B19F0668380E091
S11304E0089580E90895EF92FF920F931F93CF939D
S11304F0DF937C018B01D42F411118C0FB01608173
S1130500C0E008C0C7010E946102CF5FF801EC0F90
S1130510F11D60816111F6CF0CC0F801EC0FF11DE3
S11305206081C7010E946102CF5F01C0C0E0CD17A6
S1130530A0F3DF91CF911F910F91FF90EF90089559
S1130540A1E21A2EAA1BBB1BFD010DC0AA1FBB1FD3
S1130550EE1FFF1FA217B307E407F50720F0A21B45
S1130560B30BE40BF50B661F771F881F991F1A94B2
S113057069F760957095809590959B01AC01BD01DC
S10B0580CF010895F894FFCFA8
S11305880A53544152540A007477695F696E697456
S11305985F6661696C0A000A310A000A320A000AB5
S11305A8454E440A00526563656976656420566160
S11305B86C7565203D2025322E3262580A0D005490
S11305C857495F4F4B0A005457495F4552520A0036
S11305D85457495F4552525F54574F0A005457497C
S11305E85F4552525F54494D450A005457495F4587
S11305F852525F4255530A005457495F4552525F5D
S11306084E41434B0A005457495F4F544845520AD8
S10506180000DC
S9030000FC
