:100000000C9466000C9483000C9483000C94830081
:100010000C9483000C9483000C9483000C94830054
:100020000C9483000C9483000C9483000C94830044
:100030000C9483000C9483000C9483000C94830034
:100040000C9483000C9483000C9483000C94830024
:100050000C9483000C9483000C9483000C94830014
:100060000C9483000C9483000C9483000C94830004
:100070000C9483000C9483000C9483000C948300F4
:100080000C9483000C9483000C9483000C948300E4
:100090000C9483000C9483000C9483000C948300D4
:1000A0000C9483000C9483000C9483000C948300C4
:1000B0000C9483000C9483000C9483000C948300B4
:1000C0000C9483000C9483000C94830011241FBEB5
:1000D000CFEFD8E0DEBFCDBF11E0A0E0B1E0E8E0B7
:1000E000FDE002C005900D92A439B107D9F721E0D7
:1000F000A4E9B1E001C01D92A43EB207E1F70E945D
:100100008A000C9482060C940000FC012181622B71
:100110006183089540E855E260E070E088EC90E08B
:100120000E94FD0247E060E071E088EC90E00E94F0
:10013000490340EA56E861E070E088ED90E00E94F3
:10014000DD00C82F882339F04EE068E071E088ECCC
:1001500090E00E944903CC2339F04CE067E171E064
:1001600088EC90E00E9449032FEF83ED90E321504B
:1001700080409040E1F700C000000E94690245E025
:1001800064E271E088EC90E00E944903FFCF24E82C
:10019000FC0124830895FC0184E9848384818823FD
:1001A000ECF7848184FDFDCF089524EAFC012483CB
:1001B000089524ECFC0124830895CF92DF92EF92FE
:1001C000FF92CF93DF93EC019A01AB0160E074E200
:1001D00084EF90E00E94760369017A0180E1C81AF9
:1001E000D108E108F108C701B6012EEF31E040E087
:1001F00050E00E9476032115310541055105A9F013
:100200002430310541055105B0F02031310541055B
:100210005105B8F0203431054105510528F540E479
:1002200050E060E070E083E011C041E050E060E049
:1002300070E080E00BC044E050E060E070E081E0FE
:1002400005C040E150E060E070E082E089839A01FF
:10025000AB01220F331F441F551FC701B6010E9477
:100260007603288380E001C081E0DF91CF91FF9089
:10027000EF90DF90CF900895CF92DF92EF92FF92B0
:100280001F93CF93DF93EC0170E0660F771F162F5B
:1002900011600E94D5008C818823ECF78981887FCA
:1002A000883019F0803109F055C01B8384E88C83B5
:1002B0008C818823ECF78981887F8034F1F581E097
:1002C000E816F10429F4CE010E94C70010E02DC009
:1002D000CE010E94D900FACF8C818823ECF7898166
:1002E000887F8035A9F481E0E81AF108F601E10F72
:1002F000F11D8B8180831F5F81E0E816F10421F4FA
:10030000CE010E94C70011C0CE010E94D9000DC0CD
:10031000883559F481E0E81AF1088B81F601E10F84
:10032000F11D8083CE010E94CB00E114F104A1F6FF
:10033000CE010E94CB0080E010C0883429F4CE01A9
:100340000E94CB0085E009C0883331F484E88C83B7
:1003500080E003C084E001C080E0DF91CF911F9175
:10036000FF90EF90DF90CF9008958F929F92AF9281
:10037000BF92CF92DF92EF92FF920F931F93CF9392
:10038000DF93EC0149015A01162F110F0E94D5008D
:100390008C818823ECF78981887F883019F080313F
:1003A00009F083C01B8384E88C838C818823ECF75D
:1003B0008981982F987F8981887F883109F071C061
:1003C00028C0802F90E0821B91090197880F991F08
:1003D000880F991F880F991FB501A40104C0769555
:1003E0006795579547958A95D2F74B8384E88C8318
:1003F0008C818823ECF78981887F803229F4CE01B3
:100400000E94CB0085E058C0883309F450C02F5FAC
:1004100001C020E02017A8F251E0E516F10421F414
:10042000CE010E94C70003C0CE010E94D9001FEF79
:100430001E0D2FC08C818823ECF78981887F88323C
:10044000A9F461E0E61AF108F601E10FF11D8081DF
:100450008B83115071E0E716F10421F4CE010E9464
:10046000C70017C0CE010E94D90013C0803379F4B1
:1004700081E0E81AF1088B81F601E10FF11D80831C
:10048000CE010E94CB008C8184FDFDCF02C0883359
:1004900081F0E114F10471F6CE010E94CB0080E0FE
:1004A0000BC0903241F485E007C084E005C081E0D4
:1004B00003C081E001C081E0DF91CF911F910F91D6
:1004C000FF90EF90DF90CF90BF90AF909F908F9074
:1004D00008959F92AF92BF92CF92DF92EF92FF92D8
:1004E0000F931F93CF93DF9300D01F92CDB7DEB74A
:1004F00062E083E290E00E94850085B18D7F85B93E
:1005000000C085B1826085B90E944603982E192FDC
:10051000E82FF92F80E5DF011D928A95E9F719820E
:100520001A821B820F2EF4E6AF2EB12CF02DCE01D5
:1005300001966C01E12CF12C01E021E030E040E07B
:1005400050E063E488ED90E00E94B50191E0A91AC3
:10055000B108882349F0A114B10449F70F2EF4E63D
:10056000AF2EB12CF02D05C00F2EF4E6AF2EB12C1E
:10057000F02DDE0111966D01EE24E394F12C00E0E4
:1005800020E030E0A90163E488ED90E00E943C01A6
:10059000B1E0AB1AB108882319F0A114B10449F7EE
:1005A000AB28D9F089811F928F938AE291E09F93C3
:1005B0008F931F939F920E94980340EA50E0692D09
:1005C000712F88EC90E00E9449030F900F900F90DC
:1005D0000F900F900F9080E001C083E00F900F907C
:1005E0000F90DF91CF911F910F91FF90EF90DF90CF
:1005F000CF90BF90AF909F900895CF93DF93EC0181
:10060000DB01CA0180589B47A14EBF4F880F991F3D
:10061000AA1FBB1F880F991FAA1FBB1F880F991FF6
:10062000AA1FBB1F440F551F661F771F440F551F7E
:10063000661F771F9A01AB01220F331F441F551FFE
:10064000220F331F441F551FBC01CD010E947603AA
:10065000215031093D832C83188286E08A8388E10A
:100660008983DF91CF910895FC0120E030E09081F3
:100670002F5F3F4F95FD03C021153105C1F7232B97
:1006800019F0668380E0089580E9089584E991E097
:100690000895EF92FF920F931F93CF93DF937C0106
:1006A0008B01D42F411118C0FB016081C0E008C04C
:1006B000C7010E943403CF5FF801EC0FF11D608188
:1006C0006111F6CF0CC0F801EC0FF11D6081C7017C
:1006D0000E943403CF5F01C0C0E0CD17A0F3DF91CB
:1006E000CF911F910F91FF90EF900895A1E21A2EE4
:1006F000AA1BBB1BFD010DC0AA1FBB1FEE1FFF1FC6
:10070000A217B307E407F50720F0A21BB30BE40B15
:10071000F50B661F771F881F991F1A9469F760955C
:100720007095809590959B01AC01BD01CF01089516
:10073000AEE0B0E0EEE9F3E00C9459060D891E89B5
:1007400086E08C831A8309838FEF9FE79E838D83D6
:10075000AE01475E5F4F6F89788DCE0101960E9492
:10076000BA03EF81F885E00FF11F10822E96E4E0C6
:100770000C947506ABE0B0E0E0ECF3E00C944B06B3
:100780006C017B018A01FC0117821682838181FF43
:10079000CCC1CE0101963C01F6019381F70193FD96
:1007A000859193FF81917F01882309F4BAC1853235
:1007B00039F493FD859193FF81917F01853229F46E
:1007C000B60190E00E94B105E7CF912C212C312C8D
:1007D000FFE1F315D8F08B3279F038F4803279F0FC
:1007E0008332A1F4232D20611DC08D3261F080334E
:1007F00069F4232D216016C0832D8260382EE32DED
:10080000E4603E2E2AC0F32DF8601DC037FC2DC0D9
:1008100020ED280F2A3040F08E32B9F436FC81C129
:10082000232D2064322E19C036FE06C08AE0989E21
:10083000200D1124922E11C0EAE02E9E200D1124CD
:10084000222EF32DF0623F2E08C08C3621F4832D2A
:100850008068382E02C0883641F4F70193FD8591F7
:1008600093FF81917F018111B3CF982F9F7D955484
:10087000933028F40C5F1F4F9FE399830DC083369C
:1008800031F0833771F0833509F059C021C0F80188
:10089000808189830E5F1F4F88248394912C53019C
:1008A00013C02801F2E04F0E511CF801A080B18066
:1008B00036FE03C0692D70E002C06FEF7FEFC50107
:1008C0000E94A6054C018201F32DFF773F2E16C032
:1008D000280122E0420E511CF801A080B18036FEB2
:1008E00003C0692D70E002C06FEF7FEFC5010E9469
:1008F0009B054C01F32DF0683F2E820133FC1BC099
:10090000822D90E088169906B0F4B60180E290E05E
:100910000E94B1052A94F4CFF50137FC859137FE8A
:1009200081915F01B60190E00E94B10521102A94E7
:1009300021E0821A91088114910471F7E8C084368D
:1009400011F0893641F5F80137FE07C060817181E9
:10095000828193810C5F1F4F08C060817181072ED7
:10096000000C880B990B0E5F1F4FF32DFF763F2E67
:1009700097FF09C090958095709561957F4F8F4F37
:100980009F4FF0683F2E2AE030E0A3010E94ED0562
:10099000882E861845C0853731F4232D2F7EB22E40
:1009A0002AE030E025C0932D997FB92E8F36C1F013
:1009B00018F4883579F0B5C0803719F0883721F000
:1009C000B0C0E92FE061BE2EB4FE0DC0FB2DF46077
:1009D000BF2E09C034FE0AC0292F2660B22E06C0E1
:1009E00028E030E005C020E130E002C020E132E044
:1009F000F801B7FE07C060817181828193810C5F2D
:100A00001F4F06C06081718180E090E00E5F1F4F34
:100A1000A3010E94ED05882E8618FB2DFF773F2E3F
:100A200036FE0DC0232D2E7FA22E891458F434FEDD
:100A30000BC032FC09C0832D8E7EA82E05C0B82CB9
:100A4000A32C03C0B82C01C0B92CA4FE0FC0FE011A
:100A5000E80DF11D8081803321F49A2D997EA92E15
:100A600009C0A2FE06C0B394B39404C08A2D867850
:100A700009F0B394A3FC11C0A0FE06C0B21488F420
:100A8000280C922C9B180EC0B21460F4B60180E2C0
:100A900090E00E94B105B394F7CFB21418F42B186C
:100AA00002C0982C212CA4FE10C0B60180E390E077
:100AB0000E94B105A2FE17C0A1FC03C088E790E028
:100AC00002C088E590E0B6010CC08A2D867859F006
:100AD000A1FE02C08BE201C080E2A7FC8DE2B6015C
:100AE00090E00E94B105891438F4B60180E390E0EB
:100AF0000E94B1059A94F7CF8A94F301E80DF11D95
:100B00008081B60190E00E94B1058110F5CF2220CE
:100B100009F442CEB60180E290E00E94B1052A9429
:100B2000F6CFF6018681978102C08FEF9FEF2B965B
:100B3000E2E10C946706FC010590615070400110E1
:100B4000D8F7809590958E0F9F1F0895FC016150F6
:100B5000704001900110D8F7809590958E0F9F1FDF
:100B600008950F931F93CF93DF93FB01238121FD02
:100B700003C08FEF9FEF2CC022FF16C04681578124
:100B8000248135814217530744F4A081B1819D012E
:100B90002F5F3F4F318320838C93268137812F5FD6
:100BA0003F4F3783268314C08B01EC01FB01008487
:100BB000F185E02D0995892BE1F6D80116968D91E6
:100BC0009C911797019617969C938E931697CE013A
:100BD000DF91CF911F910F910895FA01AA27283034
:100BE00051F1203181F1E8946F936E7F6E5F7F4FFA
:100BF0008F4F9F4FAF4FB1E03ED0B4E03CD0670F76
:100C0000781F891F9A1FA11D680F791F8A1F911DC8
:100C1000A11D6A0F711D811D911DA11D20D009F418
:100C200068943F912AE0269F11243019305D31935A
:100C3000DEF6CF010895462F4770405D4193B3E043
:100C40000FD0C9F7F6CF462F4F70405D4A3318F0EA
:100C5000495D31FD4052419302D0A9F7EACFB4E09B
:100C6000A6959795879577956795BA95C9F7009753
:100C70006105710508959B01AC010A2E06945795F4
:100C8000479537952795BA95C9F7620F731F841F4B
:100C9000951FA01D08952F923F924F925F926F92E1
:100CA0007F928F929F92AF92BF92CF92DF92EF92FC
:100CB000FF920F931F93CF93DF93CDB7DEB7CA1B7D
:100CC000DB0B0FB6F894DEBF0FBECDBF09942A88A8
:100CD000398848885F846E847D848C849B84AA8450
:100CE000B984C884DF80EE80FD800C811B81AA81DD
:100CF000B981CE0FD11D0FB6F894DEBF0FBECDBFA8
:080D0000ED010895F894FFCF06
:100D08000A53544152540A007477695F696E6974D2
:100D18005F6661696C0A007374615F74696D656F01
:100D280075740A000A454E440A005265636569767F
:100D380065642056616C7565203D202532780A0D62
:100D4800005457495F4F4B0A005457495F45525268
:100D58000A005457495F4552525F54574F0A00548E
:100D680057495F4552525F54494D450A0054574907
:100D78005F4552525F4255530A005457495F4552E6
:100D8800525F4E41434B0A005457495F4F54484500
:040D9800520A0000FB
:00000001FF
