S01800006578706572696D656E74345F747279332E73726563A6
S11300000C9461080C947E080C947E080C947E0871
S11300100C947E080C947E080C947E080C947E0844
S11300200C947E080C947E080C947E080C947E0834
S11300300C947E080C947E080C947E080C947E0824
S11300400C947E080C947E080C947E080C947E0814
S11300500C947E080C947E080C947E080C947E0804
S11300600C947E080C947E080C947E080C947E08F4
S11300700C947E080C947E080C947E080C947E08E4
S11300800C947E080C947E080C947E080C947E08D4
S11300900C947E080C947E080C947E080C947E08C4
S11300A00C947E080C947E080C947E080C947E08B4
S11300B00C947E080C947E080C947E080C947E08A4
S11300C00C947E080C947E080C947E0854075510FA
S11300D006090B0252B85100650064005006610520
S11300E005A10D0018040C00460348037201FFFF2C
S11300F0FFFF3A00643A65BB083A09BB50105267E7
S11301005177180405A1540155210700060C0B036F
S1130110501051005204610F64556555180405A12F
S1130120FFFFFFFF3A012A042800290020002100D4
S1130130220023002400250026002700280128028D
S1130140218F2803210028042805280628072808C9
S11301502809280A280B280C20802190280D20002B
S11301602100280E20812191280F2000219228109F
S1130170210028112193281221002813281428155E
S11301802082281620002817281828192194281AB4
S11301902195281B2196281C2100281D2083281E18
S11301A02000281F219728202100282128222823E5
S11301B0282428252826282728282829282A20846E
S11301C0282B2000282C282D282E282F28302831B1
S11301D0283220852833200028342835283628372B
S11301E02198283821002839283A283B283C283DE2
S11301F0283E283F284028412842284328442845AF
S11302002846284728482849284A284B284C284D5E
S1130210284E284F2850285128522853285428550E
S11302202856285728582859285A285B285C285DBE
S1130230285E285F286028612862219928632100AC
S1130240286428652866286728682869286A286B2E
S1130250286C286D286E286F2870287128722873DE
S1130260287428752876287728782879287A287B8E
S1130270287C287D287E287F28802881288228833E
S1130280288428852886288728882889288A288BEE
S1130290288C288D288E288F2890289120862892B3
S11302A02087289320002894289528962897289812
S11302B02899289A289B289C289D289E289F219A23
S11302C028A0210028A128A228A328A428A528A67C
S11302D028A728A828A928AA28AB28AC28AD28AE86
S11302E028AF28B028B128B228B328B428B528B636
S11302F028B728B828B9208828BA200028BB208924
S113030028BC200028BD28BE28BF28C028C128C278
S113031028C3219B28C4210028C528C628C728C86B
S113032028C928CA28CB28CC28CD28CE28CF28D025
S113033028D128D228D328D428D528D628D728D8D5
S113034028D928DA28DB28DC28DD28DE28DF28E085
S113035028E1208A28E2208B28E3200028E428E5ED
S113036028E628E728E828E928EA28EB28EC28EDFD
S113037028EE28EF28F028F128F228F328F428F5AD
S113038028F628F728F8208C28F92000219C28FA40
S1130390219D28FB208D219E28FC208E219F28FD55
S11303A02000210028FE28FF2A012800220123958D
S11303B02489250726A42707280121C72200238092
S11303C026C4270C28022009211C220426AA270A55
S11303D0280320002100220023A626A027072804A2
S11303E028052005238426B4270928062000220393
S11303F02300248125C026AB270A280721AE22002A
S113040023952489250726A42700280821482201AA
S1130410238026C4270C280920092104220426AAA3
S1130420270A280A20002100220023A826A427073F
S1130430280B280C21402220238026C4270C280DB9
S1130440222426C6280E219E220026C8280F200911
S11304502102221426AA270A28102005210022009E
S1130460238426B427092811200021012300240114
S113047025C026AB270A281221C3239524892507E2
S1130480262027002813200321C223832626270D94
S1130490281421B322082815200021C62200239500
S11304A0260027082816210023002496250326AABF
S11304B0270A2817204221B62380248925072818D3
S11304C0200021002394260E2819200F238426B40B
S11304D02709281A2000239326A82703281B262847
S11304E02700281C21012300240125C026AB270A4C
S11304F0281D21C523952489250726202700281E89
S1130500210023942600270A281F260E28202003D2
S11305102179220123832626270D2821213228220E
S11305202000210422002380240025FC26AA270A77
S11305302823210023002500282421A3220D238021
S1130540249E253B28252042215722012489250762
S1130550282620002143220D24002538282721089D
S11305602298239524892507262427002828204219
S113057021932201238026AA270A28292003217EE9
S1130580220423832626270D282A200021B02200B6
S1130590239526A02707282B21002300240C2504BB
S11305A026AA270A282C21022380248625C326ABC9
S11305B0282D2042219722012489250726AA282EA6
S11305C0200021002200241F2504282F21B2239576
S11305D0248925072620270428302042218B220441
S11305E0238026AA270A2831200021B1220023953E
S11305F026A02707283220032175220423832626D8
S1130600270D2833200521002200238426B427093E
S11306102834200021602300240125C026AB270AAA
S11306202835210822982395248925072624270084
S1130630283621BC2200283721A3220D23002401BF
S113064025C026AB270A28382160220023802400F5
S1130650253826AA28392106229823952489250796
S113066026242700283A21BE2200283B2005210009
S1130670238426B42709283C200021602300240178
S113068025C026AB270A283D21422201239524892F
S1130690250726242700283E210C229826A4270774
S11306A0283F21082840216022002300240125C07E
S11306B026AB270A2841210C229823952489250753
S11306C0262427002842200521002200238426B462
S11306D027092843200023802400251026AB270A5D
S11306E02844212222012395248925072624270032
S11306F028452100220023002404251226AA270AC3
S11307002846200321D4220523832489250726266D
S1130710270D28472000216022002300240125C042
S113072026AB270A284821B32395248925072600C8
S113073027082849210023002409250026AA270A7E
S1130740284A210223802486253B284B204221DD90
S1130750220524892507284C200021002200241F7B
S11307602500284D21B32395248925072620270019
S1130770284E210023002497250326AA270A284F60
S1130780204221E2220523802489250728502000C5
S1130790211022002300248025CC26AB28512100DF
S11307A0224023B42489250726AA2704285222009C
S11307B023B02692270928532114220123952600C9
S11307C027082854214823A4262A27002855210035
S11307D0220023002409250026AA270A28562108D6
S11307E023802486253B285720422111220724896F
S11307F025072858200021002200241F25002859FD
S11308002114220123952489250726202700285A0C
S1130810211626022709285B2100220023002480B8
S1130820254826AA270A285C23A0248925072614FC
S11308302709285D2480255026A42704285E211634
S113084022012395248925072700285F21042200FB
S11308502300249C257826AA270A28602143220DF8
S1130860240125C426AB2861210322002415286213
S113087021002400250026AA2863215E23952489CB
S1130880250726102709286421032300241525C4DD
S113089026AB270A2865210023802400250626AAE2
S11308A02866248F25E326AB2867204221CD220722
S11308B02489250726AA2868200021602200230015
S11308C0240125C026AB286921002380248F250319
S11308D026AA286A204221DD220724892507286BBD
S11308E020002143220D2300240125C026AB286CBF
S11308F0210022002400250426AA286D2003217F3C
S113090022012383248925072626270D286E2162A8
S1130910286F200521002200238426B4270928708B
S11309202000210623952600270828712101230091
S11309302497253B26AA270A28722042210E220842
S113094023802489250728732003213C220B238339
S11309502626270D28742000210322002395260231
S11309602708287521272300248125C426AB270ABC
S11309702876210023802409254826AA287721588F
S1130980223423A324892507262A27002878210036
S1130990220023A026002709287921072380240385
S11309A0253926AA270A287A21042300241C25385D
S11309B0287B2107238024832539287C2103239540
S11309C02489250726022708287D2127230024813E
S11309D025C426AB270A287E210023802409254824
S11309E026AA287F2158223423A324892507262ACE
S11309F027002880210622002300248125C0269375
S1130A0027012881210023802489254826AA270A32
S1130A1028822002216622082300240025662883D8
S1130A202000210022002380241F2502288421067F
S1130A302489250726DC270C2885210023AA26AA39
S1130A40270A288623B62600270828872380248699
S1130A50253B26AA270A288821052489250726DC80
S1130A60270C2889210023AA26AA270A288A23B624
S1130A7026002708288B23802486253B26AA270ABC
S1130A80288C2042217B220824892507288D2000D8
S1130A9021002200230024012582288E210524819F
S1130AA025C226AB288F200321932208238324897F
S1130AB025072626270D2890200021052200230043
S1130AC0248125C02613270128912100238024890D
S1130AD0254826AA270A28922002217E22082300DC
S1130AE02400256628932000210022002380241F4F
S1130AF02502289421052489250726DC270C28951E
S1130B00210023AA26AA270A289623B62600270806
S1130B10289723802486253B26AA270A289821057E
S1130B202489250726DC270C2899210023AA26AA34
S1130B30270A289A2380241F2502289B21012300A9
S1130B40248125C226AB289C2003219322082383D9
S1130B50248925072626270D289D2000210422000C
S1130B60239526122708289E216023C426AA270439
S1130B70289F210023C02600270928A0204221CB3A
S1130B802208238026AA270A28A12070215422B8EB
S1130B9023952612270828A2200221CC220823808C
S1130BA026AA270A28A3200321CA220F2383262644
S1130BB0270D28A42000210022002300248C250CCA
S1130BC026AA270A28A521042482257828A62100FC
S1130BD02380248925482612270428A7200321DE00
S1130BE0220F238325072626270D28A8200021016C
S1130BF022002300249C257826AA270A28A921005C
S1130C0023802481254028AA200321CF220F238377
S1130C10248925072626270D28AB2070210822B811
S1130C20239526A0270428AC200321D4220F238354
S1130C302626270D28AD2127220B28AE20702163FC
S1130C4022B823952612270828AF2000210122006C
S1130C502380248625CB26AB270A28B0204221DD19
S1130C6022082489250726AA28B1200021182280D9
S1130C70239526A4270028B2200321D9220F2383F9
S1130C802626270D28B32070210A22B8239526A0F2
S1130C90270028B4200221E02208238026AA270A5C
S1130CA028B52070210A22B8239526A0270028B64B
S1130CB021542602270828B720002118228026A4C0
S1130CC0270028B82100220023802480254826AA52
S1130CD0270A28B92070215E22B823952489250784
S1130CE02612270828BA2000210022002380240984
S1130CF0254B26AA270A28BB2070215F22B82395FA
S1130D00248925072610270828BC2000210022005A
S1130D102300241C258326AB270A28BD2003213267
S1130D2022092383248925072626270D28BE20008F
S1130D302100220023002482258C26AB270A28BF09
S1130D402003212522092383248925072626270D0C
S1130D5028C0204221BC238026AA270A28C12000BB
S1130D60210122002300240125C026AB28C22070C3
S1130D70210F22B82395248925072620270028C37C
S1130D80200321E3220F23832626270D28C42005D0
S1130D9021002200238426B4270928C5200021032A
S1130DA023952614270828C621A623A4262A270526
S1130DB028C7210023A02644270928C82118226D0A
S1130DC02380249E257B26AA270A28C92042211392
S1130DD0220B2489250728CA200021AE220023954E
S1130DE02624270028CB2100220323802487257B67
S1130DF026AA270A28CC20422116220B248925075B
S1130E0028CD200021AE220023952624270028CEB9
S1130E1020052100238426B4270928CF2003210D8F
S1130E20220B23832626270D28D020002100220010
S1130E30230024802602270028D123802409254862
S1130E40261E28D221582234233324802507262A1B
S1130E5028D32100220023002680271028D4211023
S1130E602363262A270028D52100236026A82712D9
S1130E7028D621AF224C230026C8270C28D72100CE
S1130E8022002680270528D823802486253B261E79
S1130E90270028D92042211C220E23002480250764
S1130EA028DA20002135222926C4270C28DB200239
S1130EB0211D220E261E270028DC2000217F22343B
S1130EC026C4270C28DD210022002390249F25041A
S1130ED02610270A28DE23002484250026802710D4
S1130EE028DF2106236324802507262A270028E0FB
S1130EF021002380248926AA270A28E120052384A7
S1130F0026B4270928E22070216122B823952612ED
S1130F10270828E32000210122002380248625C3FA
S1130F2026AB270A28E4204221CE220F2489250754
S1130F3026AA28E52070215022B8239526122708D6
S1130F4028E6200521002200238426B4270928E767
S1130F502070216422B823952612270828E820004F
S1130F60210122002380248625C326AB270A28E9F1
S1130F70204221D3220F2489250726AA28EA20709B
S1130F80215122B823952612270828EB2005210099
S1130F902200238426B4270928EC2070216522B876
S1130FA023952612270828ED200021012200238002
S1130FB0248625C326AB270A28EE204221D8220FF7
S1130FC02489250726AA28EF2070215222B82395C8
S1130FD02612270828F0200521002200238426B4A5
S1130FE0270928F12070216122B8239526022708B9
S1130FF028F22000210122002380248625C326AB69
S1131000270A28F3204221DD220F2489250726AA56
S113101028F42070215022B823952602270828F5A9
S1131020200521002200238426B4270928F6200065
S113103021012380248625CB26AB270A28F72042CA
S113104021E1220F2489250726AA28F8200021025D
S113105022002300248125C426AB28F92100238003
S11310602489254826AA28FA20052384250726B49E
S1131070270928FB2070214E22B823952610270823
S113108028FC2000210022002380248625C326ABCF
S1131090270A28FD204221E7220F2489250726AAB2
S11310A028FE200021BB220023952620270028FFAC
S11310B020052100238426B427092A081001FFFFF4
S11310C0FFFF11241FBECFEFD8E0DEBFCDBF11E07C
S11310D0A0E0B1E0E6E8F1E202C005900D92A03A8A
S11310E0B107D9F721E0A0EAB1E001C01D92A03F09
S11310F0B207E1F70E94CE090C94C1100C940000D1
S1131100AF92BF92CF92DF92EF92FF920F931F9311
S1131110CF93DF93EC0185B18D7F85B9000085B154
S1131120826085B9A12CB12C28C0F501EC5DFE4F7D
S11311301491F501EB5DFE4FE491ADB7BEB7119686
S1131140EC931F3F11F4EF3FE9F0812F90E0A0E012
S1131150B0E02DB73EB72F5F3F4F6901EE24E39413
S1131160F12C01E09C01AD0163E4CE010E94250B4A
S11311708111EBCF32E0A30EB11C8EE9A8168FE0EB
S1131180B80698F2000085B18D7F85B9000085B15D
S1131190826085B9A12CB12C28C0F501EE50FF4F17
S11311A01491F501ED50FF4FE491ADB7BEB7119620
S11311B0EC931F3F11F4EF3FE1F0812F90E0A0E0AA
S11311C0B0E02DB73EB72F5F3F4F6901EE24E394A3
S11311D0F12C01E09C01AD0163E4CE010E94250BDA
S11311E08111EBCF32E0A30EB11C82E3A816B10447
S11311F0A0F285B18D7F85B9000085B1826085B983
S1131200A12CB12C28C0F501E453FF4F1491F50132
S1131210E353FF4FE491ADB7BEB71196EC931F3F74
S113122011F4EF3FE1F0812F90E0A0E0B0E02DB7A2
S11312303EB72F5F3F4F6901EE24E394F12C01E0A8
S11312409C01AD0163E4CE010E94250B8111EBCF1B
S113125032E0A30EB11C86E2A816B104A0F280E02D
S1131260DF91CF911F910F91FF90EF90DF90CF907E
S1131270BF90AF9008956F927F928F929F92AF929A
S1131280BF92CF92DF92EF92FF920F931F93CF936F
S1131290DF931F92CDB7DEB75C0185B18D7F85B931
S11312A0000085B1826085B919820E947A0D682E8A
S11312B0792E0E947D0D812C912C45C0F401E453BC
S11312C0FF4F14911F3F09F443C0812F90E0A0E029
S11312D0B0E09E012F5F3F4F6901E12CF12C00E04B
S11312E09C01AD0163E4C5010E94250B8111EDCF82
S11312F0CE0101966C01EE24E394F12C00E020E091
S113130030E0A90163E4C5010E94AF0A8111F0CF66
S113131089811F928F9380E091E09F938F937F92B6
S11313206F920E94D70D40E5662D772D88EC90E0F2
S11313300E94880D92E0890E911C0F900F900F90DF
S11313400F900F900F902AE18216910408F4B6CF03
S113135080E00F90DF91CF911F910F91FF90EF905C
S1131360DF90CF90BF90AF909F908F907F906F90C1
S11313700895FC019181862F8095982391834130B3
S113138021F48281682B6283089592818923828368
S11313900895FC012181622B61830895CF93DF932B
S11313A000D01F92CDB7DEB719821A821B8240E8A3
S11313B055E260E070E088EC90E00E94310D47E077
S11313C067E171E088EC90E00E94880D40E553EC01
S11313D060E070E088ED90E00E94500A882339F0C4
S11313E04EE06FE171E088EC90E00E94880D1AE015
S11313F0CE0101966C010F2EF3E0EF2EF12CF02DAF
S113140000E020E030E0A90163E488ED90E00E9470
S1131410AF0A1150882311F01111EACF0E94EB0C8E
S11314200E94E40B882339F04CE06EE271E088EC12
S113143090E00E94880D9FEF23ED80E391502040BF
S11314408040E1F700C000004CE06BE371E088EC01
S113145090E00E94880D0E945D0C88ED90E00E944F
S1131460800888ED90E00E943B0945E068E471E063
S113147088EC90E00E94880DFFCF24E8FC012483CF
S11314800895FC0184E98483948194FDFDCF08953B
S113149024EAFC012483089524ECFC0124830895A8
S11314A0CF92DF92EF92FF92CF93DF93EC019A01F8
S11314B0AB0160E074E284EF90E00E94B50D690135
S11314C07A0180E1C81AD108E108F108C701B60120
S11314D02EEF31E040E050E00E94B50D21153105BA
S11314E041055105A9F02430310541055105B0F0FD
S11314F02031310541055105B8F02034310541054D
S1131500510528F540E450E060E070E083E011C04C
S113151041E050E060E070E080E00BC044E050E067
S113152060E070E081E005C040E150E060E070E020
S113153082E089839A01AB01220F331F441F551F98
S1131540C701B6010E94B50D288380E001C081E087
S1131550DF91CF91FF90EF90DF90CF900895CF92DD
S1131560DF92EF92FF921F93CF93DF93EC0170E031
S1131570660F771F162F11600E94480A8C818823FA
S1131580ECF78981887F883019F0803109F052C0E6
S11315901B8384E88C838C818823ECF78981887F82
S11315A08034D9F581E0E816F10429F4CE010E94D3
S11315B03D0A10E02AC0CE010E944C0AFACF8C8169
S11315C08823ECF78981887F8035A9F481E0E81AC3
S11315D0F108F601E10FF11D8B8180831F5F81E02B
S11315E0E816F10421F4CE010E943D0A0EC0CE019A
S11315F00E944C0A0AC0883541F481E0E81AF108D7
S11316008B81F601E10FF11D8083E114F104B9F639
S1131610CE010E94410A80E010C0883429F4CE0132
S11316200E94410A85E009C0883331F484E88C8340
S113163080E003C084E001C080E0DF91CF911F917E
S1131640FF90EF90DF90CF9008958F929F92AF928A
S1131650BF92CF92DF92EF92FF920F931F93CF939B
S1131660DF93EC0149015A01162F110F0E94480A19
S11316708C818823ECF78981887F883019F0803148
S113168009F08EC01B8384E88C838C818823ECF75B
S11316908981182F187F8981887F883109F079C062
S11316A028C0802F90E0821B91090197880F991F11
S11316B0880F991F880F991FB501A40104C076955E
S11316C06795579547958A95D2F74B8384E88C8321
S11316D08C818823ECF78981887F803229F4CE01BC
S11316E00E94410A85E063C0883309F45BC02F5F20
S11316F001C020E02017A8F2E114F10429F4CE017E
S11317000E94410A80E053C051E0E516F10421F43F
S1131710CE010E944C0A03C0CE010E944C0A1FEF66
S11317201E0D2FC08C818823ECF78981887F883235
S1131730A9F461E0E61AF108F601E10FF11D8081D8
S11317408B831150E114F10429F4CE010E94410A63
S113175080E02DC0CE010E944C0A13C0803379F47E
S113176071E0E71AF1088B81F601E10FF11D808326
S1131770CE010E94410A8C8184FDFDCF02C08833D2
S113178099F0E114F10471F6CE010E94410A80E05F
S11317900EC0CE010E94410A103241F485E007C018
S11317A084E005C081E003C081E001C081E0DF91F5
S11317B0CF911F910F91FF90EF90DF90CF90BF904A
S11317C0AF909F908F9008959F92AF92BF92CF92C7
S11317D0DF92EF92FF920F931F93CF93DF9300D08A
S11317E01F92CDB7DEB762E083E290E00E94C909A0
S11317F040E460E486E290E00E94B90960E489E292
S113180090E00E94C90985B18D7F85B900C085B17A
S1131810826085B90E947A0D982E192F0E947D0D41
S113182019821A821B820F2EF4E6AF2EB12CF02DF2
S1131830CE0101966C010F2EF3E0EF2EF12CF02D6A
S113184000E020E030E0A90163E488ED90E00E942C
S1131850AF0A91E0A91AB108882319F0A114B104C0
S113186039F7AB28D1F08B811F928F9380E091E000
S11318709F938F931F939F920E94D70D40EA692DE7
S1131880712F88EC90E00E94880D0F900F900F90BC
S11318900F900F900F9080E001C083E00F900F90A5
S11318A00F90DF91CF911F910F91FF90EF90DF90F8
S11318B0CF90BF90AF909F9008959F92AF92BF92A8
S11318C0CF92DF92EF92FF920F931F93CF93DF9308
S11318D000D01F92CDB7DEB762E083E290E00E94B1
S11318E0C90985B18D7F85B900C085B1826085B98C
S11318F00E947A0D982E192F0E947D0D19821A824A
S11319001B820F2EF4E6AF2EB12CF02DCE010196E2
S11319106C01E12CF12C01E021E030E040E050E0EA
S113192063E488ED90E00E94250B91E0A91AB108C8
S1131930882349F0A114B10449F70F2EF4E6AF2E21
S1131940B12CF02D05C00F2EF4E6AF2EB12CF02DE6
S1131950CE0101966C01EE24E394F12C00E020E02A
S113196030E0A90163E488ED90E00E94AF0A91E0C1
S1131970A91AB108882319F0A114B10449F7AB28B6
S1131980D1F089811F928F9380E091E09F938F9390
S11319901F939F920E94D70D40EA692D712F88EC06
S11319A090E00E94880D0F900F900F900F900F9071
S11319B00F9080E001C083E00F900F900F90DF91B3
S11319C0CF911F910F91FF90EF90DF90CF90BF9038
S11319D0AF909F9008958230E1F028F4882349F075
S11319E0813079F036C0843021F1D8F0853049F166
S11319F030C047E06EE471E088EC90E00E94880D0E
S1131A00089548E066E571E088EC90E00E94880D56
S1131A1008954CE06FE571E088EC90E00E94880D39
S1131A2008954DE06CE671E088EC90E00E94880D2A
S1131A3008954CE06AE771E088EC90E00E94880D1C
S1131A4008954DE067E871E088EC90E00E94880D0D
S1131A5008954AE065E971E088EC90E00E94880D01
S1131A600895CF93DF93EC01DB01CA0180589B47B3
S1131A70A14EBF4F880F991FAA1FBB1F880F991F24
S1131A80AA1FBB1F880F991FAA1FBB1F440F551FF6
S1131A90661F771F440F551F661F771F9A01AB01FE
S1131AA0220F331F441F551F220F331F441F551F7E
S1131AB0BC01CD010E94B50D215031093D832C8319
S1131AC0188286E08A8388E18983DF91CF91089523
S1131AD0FC0120E030E090812F5F3F4F95FD03C073
S1131AE021153105C1F7232B19F0668380E0089591
S1131AF080E9089580EA91E0089580E006C0E82F27
S1131B00F0E0E056FE4F10828F5F8035C0F30895F9
S1131B10EF92FF920F931F93CF93DF937C018B017E
S1131B20D42F411118C0FB016081C0E008C0C70177
S1131B300E94680DCF5FF801EC0FF11D6081611107
S1131B40F6CF0CC0F801EC0FF11D6081C7010E94B3
S1131B50680DCF5F01C0C0E0CD17A0F3DF91CF9136
S1131B601F910F91FF90EF900895A1E21A2EAA1BE6
S1131B70BB1BFD010DC0AA1FBB1FEE1FFF1FA21739
S1131B80B307E407F50720F0A21BB30BE40BF50B36
S1131B90661F771F881F991F1A9469F760957095BF
S1131BA0809590959B01AC01BD01CF010895AEE0F5
S1131BB0B0E0EDEDFDE00C9498100D891E8986E0EF
S1131BC08C831A8309838FEF9FE79E838D83AE01F5
S1131BD0475E5F4F6F89788DCE0101960E94F90DA3
S1131BE0EF81F885E00FF11F10822E96E4E00C944B
S1131BF0B410ABE0B0E0EFEFFDE00C948A106C01A0
S1131C007B018A01FC0117821682838181FFCCC18A
S1131C10CE0101963C01F6019381F70193FD859174
S1131C2093FF81917F01882309F4BAC1853239F485
S1131C3093FD859193FF81917F01853229F4B6014B
S1131C4090E00E94F00FE7CF912C212C312CFFE182
S1131C50F315D8F08B3279F038F4803279F083328E
S1131C60A1F4232D20611DC08D3261F0803369F40D
S1131C70232D216016C0832D8260382EE32DE4606D
S1131C803E2E2AC0F32DF8601DC037FC2DC020ED78
S1131C90280F2A3040F08E32B9F436FC81C1232D4E
S1131CA02064322E19C036FE06C08AE0989E200DAC
S1131CB01124922E11C0EAE02E9E200D1124222E12
S1131CC0F32DF0623F2E08C08C3621F4832D8068FA
S1131CD0382E02C0883641F4F70193FD859193FFB5
S1131CE081917F018111B3CF982F9F7D95549330BB
S1131CF028F40C5F1F4F9FE399830DC0833631F0A6
S1131D00833771F0833509F059C021C0F80180810F
S1131D1089830E5F1F4F88248394912C530113C031
S1131D202801F2E04F0E511CF801A080B18036FE6C
S1131D3003C0692D70E002C06FEF7FEFC5010E9400
S1131D40E50F4C018201F32DFF773F2E16C02801C9
S1131D5022E0420E511CF801A080B18036FE03C07F
S1131D60692D70E002C06FEF7FEFC5010E94DA0FAA
S1131D704C01F32DF0683F2E820133FC1BC0822DF1
S1131D8090E088169906B0F4B60180E290E00E94D3
S1131D90F00F2A94F4CFF50137FC859137FE819139
S1131DA05F01B60190E00E94F00F21102A9421E017
S1131DB0821A91088114910471F7E8C0843611F0F5
S1131DC0893641F5F80137FE07C06081718182814F
S1131DD093810C5F1F4F08C060817181072E000C36
S1131DE0880B990B0E5F1F4FF32DFF763F2E97FF45
S1131DF009C090958095709561957F4F8F4F9F4F47
S1131E00F0683F2E2AE030E0A3010E942C10882EB7
S1131E10861845C0853731F4232D2F7EB22E2AE053
S1131E2030E025C0932D997FB92E8F36C1F018F478
S1131E30883579F0B5C0803719F0883721F0B0C003
S1131E40E92FE061BE2EB4FE0DC0FB2DF460BF2E61
S1131E5009C034FE0AC0292F2660B22E06C028E02D
S1131E6030E005C020E130E002C020E132E0F801BA
S1131E70B7FE07C060817181828193810C5F1F4F1F
S1131E8006C06081718180E090E00E5F1F4FA30166
S1131E900E942C10882E8618FB2DFF773F2E36FECD
S1131EA00DC0232D2E7FA22E891458F434FE0BC0AE
S1131EB032FC09C0832D8E7EA82E05C0B82CA32C1D
S1131EC003C0B82C01C0B92CA4FE0FC0FE01E80D5C
S1131ED0F11D8081803321F49A2D997EA92E09C0A9
S1131EE0A2FE06C0B394B39404C08A2D867809F088
S1131EF0B394A3FC11C0A0FE06C0B21488F4280C4D
S1131F00922C9B180EC0B21460F4B60180E290E0EB
S1131F100E94F00FB394F7CFB21418F42B1802C038
S1131F20982C212CA4FE10C0B60180E390E00E94FE
S1131F30F00FA2FE17C0A1FC03C088E790E002C026
S1131F4088E590E0B6010CC08A2D867859F0A1FE90
S1131F5002C08BE201C080E2A7FC8DE2B60190E0F2
S1131F600E94F00F891438F4B60180E390E00E94D7
S1131F70F00F9A94F7CF8A94F301E80DF11D808154
S1131F80B60190E00E94F00F8110F5CF222009F4F1
S1131F9042CEB60180E290E00E94F00F2A94F6CF80
S1131FA0F6018681978102C08FEF9FEF2B96E2E1C5
S1131FB00C94A610FC010590615070400110D8F7F4
S1131FC0809590958E0F9F1F0895FC01615070407D
S1131FD001900110D8F7809590958E0F9F1F08955A
S1131FE00F931F93CF93DF93FB01238121FD03C044
S1131FF08FEF9FEF2CC022FF16C0468157812481AA
S113200035814217530744F4A081B1819D012F5FAC
S11320103F4F318320838C93268137812F5F3F4F3D
S11320203783268314C08B01EC01FB010084F18506
S1132030E02D0995892BE1F6D80116968D919C9196
S11320401797019617969C938E931697CE01DF915E
S1132050CF911F910F910895FA01AA27283051F1C9
S1132060203181F1E8946F936E7F6E5F7F4F8F4FC5
S11320709F4FAF4FB1E03ED0B4E03CD0670F781F24
S1132080891F9A1FA11D680F791F8A1F911DA11D09
S11320906A0F711D811D911DA11D20D009F4689442
S11320A03F912AE0269F11243019305D3193DEF6EA
S11320B0CF010895462F4770405D4193B3E00FD0A0
S11320C0C9F7F6CF462F4F70405D4A3318F0495D8B
S11320D031FD4052419302D0A9F7EACFB4E0A6956E
S11320E09795879577956795BA95C9F70097610590
S11320F0710508959B01AC010A2E069457954795E6
S113210037952795BA95C9F7620F731F841F951FDA
S1132110A01D08952F923F924F925F926F927F92EB
S11321208F929F92AF92BF92CF92DF92EF92FF92E3
S11321300F931F93CF93DF93CDB7DEB7CA1BDB0B8F
S11321400FB6F894DEBF0FBECDBF09942A88398834
S113215048885F846E847D848C849B84AA84B9843B
S1132160C884DF80EE80FD800C811B81AA81B98147
S1132170CE0FD11D0FB6F894DEBF0FBECDBFED015B
S10921800895F894FFCF5E
S113218652656365697665642056616C7565203DA4
S1132196202532780A0D000A53544152540A007419
S11321A677695F696E69745F6661696C0A00737446
S11321B6615F74696D656F75740A000A3320466938
S11321C66E69736865640A000A454E440A005457EA
S11321D6495F4F4B0A005457495F4552520A00540F
S11321E657495F4552525F54574F0A005457495F47
S11321F64552525F54494D450A005457495F45526A
S1132206525F4255530A005457495F4552525F4E36
S113221641434B0A005457495F4F544845520A00FC
S9030000FC
